:100000000C945D000C9485000C9485000C94850084
:100010000C9485000C9485000C9485000C9485004C
:100020000C9485000C9485000C9485000C9485003C
:100030000C9485000C9485000C9485000C9485002C
:100040000C94DF020C9485000C94AD020C94870292
:100050000C9485000C9485000C9485000C9485000C
:100060000C9485000C9485000000000024002700FB
:100070002A0000000000250028002B0004040404CE
:100080000404040402020202020203030303030342
:10009000010204081020408001020408102001021F
:1000A00004081020000000080002010000030407FB
:1000B00000000000000000000E0511241FBECFEF5D
:1000C000D8E0DEBFCDBF11E0A0E0B1E0EEE5FEE09C
:1000D00002C005900D92A833B107D9F721E0A8E33B
:1000E000B1E001C01D92A63EB207E1F710E0CDE5F8
:1000F000D0E004C02197FE010E942707CC35D1072C
:10010000C9F70E9429030C942D070C940000AF92AC
:10011000BF92CF92DF92EF92FF920F931F93CF93F4
:10012000DF936C017B018B01040F151FEB015E0156
:10013000AE18BF08C017D10759F06991D601ED91EB
:10014000FC910190F081E02DC6010995892B79F78A
:10015000C501DF91CF911F910F91FF90EF90DF903C
:10016000CF90BF90AF900895FC01538D448D252F03
:1001700030E0842F90E0821B930B541710F0CF9641
:10018000089501970895FC01918D828D981761F073
:10019000A28DAE0FBF2FB11D5D968C91928D9F5F8A
:1001A0009F73928F90E008958FEF9FEF0895FC0169
:1001B000918D828D981731F0828DE80FF11D858D1C
:1001C00090E008958FEF9FEF0895FC01918D228DAF
:1001D000892F90E0805C9F4F821B91098F73992734
:1001E000089589E491E00E94E50021E0892B09F45B
:1001F00020E0822F089580E090E0892B29F00E9472
:10020000F10081110C9400000895FC01A48DA80F49
:10021000B92FB11DA35ABF4F2C91848D90E0019648
:100220008F739927848FA689B7892C93A089B18968
:100230008C91837080648C93938D848D981306C009
:100240000288F389E02D80818F7D80830895EF926D
:10025000FF920F931F93CF93DF93EC0181E0888F80
:100260009B8D8C8D98131AC0E889F989808185FF50
:1002700015C09FB7F894EE89FF896083E889F989F2
:1002800080818370806480839FBF81E090E0DF91F4
:10029000CF911F910F91FF90EF900895F62E0B8D47
:1002A00010E00F5F1F4F0F731127E02E8C8D8E1102
:1002B0000CC00FB607FCFACFE889F989808185FF69
:1002C000F5CFCE010E940501F1CFEB8DEC0FFD2F94
:1002D000F11DE35AFF4FF0829FB7F8940B8FEA8924
:1002E000FB8980818062CFCFCF93DF93EC01888D33
:1002F0008823B9F0AA89BB89E889F9898C9185FDA1
:1003000003C0808186FD0DC00FB607FCF7CF8C912E
:1003100085FFF2CF808185FFEDCFCE010E940501E0
:10032000E9CFDF91CF91089590E0FC01EC55FF4FAC
:100330002491FC01E057FF4F3491FC01E458FF4F3A
:10034000E491EE23C9F0222339F0233001F1A8F41F
:10035000213019F1223029F1F0E0EE0FFF1FEE58A5
:10036000FF4FA591B4918FB7F894EC91611126C01D
:1003700030953E233C938FBF08952730A9F0283055
:10038000C9F0243049F7809180008F7D03C08091AF
:1003900080008F7780938000DFCF84B58F7784BD16
:1003A000DBCF84B58F7DFBCF8091B0008F778093BA
:1003B000B000D2CF8091B0008F7DF9CF3E2BDACF45
:1003C000CF93DF9390E0FC01E057FF4F24918458D6
:1003D0009F4FFC0184918823D1F090E0880F991FF2
:1003E000FC01E859FF4FA591B491FC01EE58FF4F75
:1003F000C591D49161110EC09FB7F8948C91E22FF2
:10040000E0958E238C932881E223E8839FBFDF91C0
:10041000CF9108958FB7F894EC91E22BEC938FBFB6
:10042000F6CF3FB7F89480913D0190913E01A091A5
:100430003F01B091400126B5A89B05C02F3F19F0A0
:100440000196A11DB11D3FBFBA2FA92F982F882754
:10045000BC01CD01620F711D811D911D42E0660F2F
:10046000771F881F991F4A95D1F70895FC010190C5
:100470000020E9F73197AF01481B590BBC0189E413
:1004800091E00C9487008F929F92AF92BF920F934E
:100490001F93CF93DF93CDB7DEB7A1970FB6F89434
:1004A000DEBF0FBECDBF19A2423008F44AE08E0174
:1004B0000F5D1F4F842E912CB12CA12CA50194010E
:1004C0000E940507E62FB901CA01EA30F4F4E05DA5
:1004D000D801EE938D01232B242B252B79F790E067
:1004E00080E0109719F0CD010E943602A1960FB658
:1004F000F894DEBF0FBECDBFDF91CF911F910F915A
:10050000BF90AF909F908F900895E95CE1CF1F92CC
:100510000F920FB60F9211242F933F934F935F9337
:100520006F937F938F939F93AF93BF93EF93FF93BB
:1005300089E491E00E940501FF91EF91BF91AF9195
:100540009F918F917F916F915F914F913F912F91EB
:100550000F900FBE0F901F9018951F920F920FB61D
:100560000F9211242F938F939F93EF93FF93E0911A
:100570005901F0915A018081E0915F01F091600191
:1005800082FD1BC09081809162018F5F8F732091EB
:100590006301821741F0E0916201F0E0E75BFE4FFA
:1005A000958F80936201FF91EF919F918F912F9191
:1005B0000F900FBE0F901F9018958081F4CF1F925F
:1005C0000F920FB60F9211242F933F938F939F9307
:1005D000AF93BF938091390190913A01A0913B0173
:1005E000B0913C013091380123E0230F2D3758F5AD
:1005F0000196A11DB11D209338018093390190937C
:100600003A01A0933B01B0933C0180913D01909150
:100610003E01A0913F01B09140010196A11DB11D85
:1006200080933D0190933E01A0933F01B093400120
:10063000BF91AF919F918F913F912F910F900FBEDE
:100640000F901F90189526E8230F0296A11DB11D4B
:10065000D2CF789484B5826084BD84B5816084BD36
:1006600085B5826085BD85B5816085BD80916E0050
:10067000816080936E001092810080918100826081
:1006800080938100809181008160809381008091BE
:1006900080008160809380008091B10084608093AD
:1006A000B1008091B00081608093B00080917A00A9
:1006B000846080937A0080917A00826080937A00CF
:1006C00080917A00816080937A0080917A008068BE
:1006D00080937A001092C10060E08EE00E94E001F9
:1006E00061E08DE00E94E00161E08CE00E94E001A9
:1006F00061E086E00E94E00161E087E00E94E001A5
:1007000060E08DE00E94940160E08CE00E94940122
:10071000E0915901F0915A0182E08083E091550106
:10072000F09156011082E0915701F09158018FEC41
:10073000808310926101E0915D01F0915E0186E09D
:100740008083E0915B01F0915C0180818061808316
:10075000E0915B01F0915C01808188608083E09191
:100760005B01F0915C01808180688083E0915B0196
:10077000F0915C0180818F7D808382E191E00E9415
:10078000360288E291E00E94360210E4C0E0D0E038
:1007900010937C0080917A00806480937A0080912D
:1007A0007A0086FDFCCFE090780060917900F62E0B
:1007B000F0924801E092470189E491E00E94E5004F
:1007C000892B49F089E491E00E94C300909346018F
:1007D00080934501F1CF809145019091460181338D
:1007E000910509F078C061E08DE00E94940161E01C
:1007F0008CE00E949401B701FF0C880B990B0E94BA
:10080000DE0520E93EE34AEF5EE30E9493066B01BA
:100810007C014B015C01C0924101D0924201E09207
:100820004301F0924401AC019B010E940007882320
:1008300009F45AC08BE291E00E94360288E291E00E
:100840000E94360220E030E040EA52E4609141012B
:100850007091420180914301909144010E948E0663
:1008600018160CF0D5C060E086E00E94940161E0AB
:1008700087E00E9494010E9411026B017C0184EFC9
:10088000882E99249394A12CB12C0E9411026C19EA
:100890007D098E099F09683E734081059105A8F383
:1008A00021E0821A9108A108B10888EEC80E83E001
:1008B000D81EE11CF11C81149104A104B10429F794
:1008C000209709F465CF0E94F100882309F460CFD6
:1008D0000E9400005DCFC09709F08DCF60E08DE0F1
:1008E0000E94940160E084CF26013701E89477F8F4
:1008F0002FEF3FEF4FE75FE7C301B2010E94000710
:1009000081110DC02FEF3FEF4FE75FE7C301B20149
:100910000E94A80518161CF48FE291E08DCF2FEFEE
:100920003FEF4FE75FE4C701B6010E948E0618163D
:100930001CF483E391E080CF2FEF3FEF4FE75FECB4
:10094000C701B6010E94A80587FDF3CF20E030E083
:10095000A901C701B6010E94A80587FF0BC06DE27F
:1009600089E491E00E94270146015701B7FAB0944B
:10097000B7F8B0942AE037ED43EA5BE3C501B40170
:100980000E943C054B015C010E94AD056B017C019E
:100990000E94DC059B01AC01C501B4010E943B052E
:1009A0004B015C014AE0C701B6010E9443026EE2BE
:1009B00089E491E00E94270120E030E040E251E428
:1009C000C501B4010E9493064B015C010E94AD0574
:1009D0006B01F12CE12C4AE0C701B6010E944302F1
:1009E000C701B6010E94DC059B01AC01C501B40141
:1009F0000E943B0520E030E040E251E40E94930673
:100A00000E94AD0590E080E04AE00E94430216CFCC
:100A100061E086E00E94940160E02ACFE9E4F1E021
:100A20001382128288EE93E0A0E0B0E08483958385
:100A3000A683B78384E091E09183808385EC90E086
:100A40009587848784EC90E09787868780EC90E098
:100A5000918B808B81EC90E0938B828B82EC90E089
:100A6000958B848B86EC90E0978B868B118E128E03
:100A7000138E148E08955058BB27AA270E94530541
:100A80000C9454060E94460638F00E944D0620F051
:100A900039F49F3F19F426F40C9443060EF4E095C4
:100AA000E7FB0C943D06E92F0E94650658F3BA1740
:100AB000620773078407950720F079F4A6F50C9474
:100AC00087060EF4E0950B2EBA2FA02D0B01B9016D
:100AD00090010C01CA01A0011124FF27591B99F0B4
:100AE000593F50F4503E68F11A16F040A22F232FC0
:100AF000342F4427585FF3CF469537952795A79510
:100B0000F0405395C9F77EF41F16BA0B620B730BB6
:100B1000840BBAF09150A1F0FF0FBB1F661F771F27
:100B2000881FC2F70EC0BA0F621F731F841F48F4DC
:100B3000879577956795B795F7959E3F08F0B0CF65
:100B40009395880F08F09927EE0F9795879508954C
:100B50000E94190608F481E008950E946D0688F04D
:100B60009F5798F0B92F9927B751B0F0E1F0660F71
:100B7000771F881F991F1AF0BA95C9F714C0B130B2
:100B800091F00E948706B1E008950C948706672FC4
:100B9000782F8827B85F39F0B93FCCF386957795E1
:100BA0006795B395D9F73EF49095809570956195CA
:100BB0007F4F8F4F9F4F0895E89409C097FB3EF4F5
:100BC00090958095709561957F4F8F4F9F4F99239A
:100BD000A9F0F92F96E9BB279395F6958795779518
:100BE0006795B795F111F8CFFAF4BB0F11F460FFD8
:100BF0001BC06F5F7F4F8F4F9F4F16C0882311F030
:100C000096E911C0772321F09EE8872F762F05C043
:100C1000662371F096E8862F70E060E02AF09A95DE
:100C2000660F771F881FDAF7880F9695879597F9D3
:100C30000895990F0008550FAA0BE0E8FEEF16166D
:100C40001706E807F907C0F012161306E407F507C0
:100C500098F0621B730B840B950B39F40A2661F034
:100C6000232B242B252B21F408950A2609F4A140D7
:100C7000A6958FEF811D811D089597F99F6780E8E4
:100C800070E060E008959FEF80EC089500240A94DE
:100C90001616170618060906089500240A94121657
:100CA0001306140605060895092E0394000C11F48A
:100CB000882352F0BB0F40F4BF2B11F460FF04C037
:100CC0006F5F7F4F8F4F9F4F089557FD9058440F90
:100CD000551F59F05F3F71F04795880F97FB991F9B
:100CE00061F09F3F79F08795089512161306140658
:100CF000551FF2CF4695F1DF08C0161617061806E5
:100D0000991FF1CF86957105610508940895E894BF
:100D1000BB2766277727CB0197F908950E9419060C
:100D200008F48FEF08950E94A6060C9454060E94C2
:100D3000460638F00E944D0620F0952311F00C94E1
:100D40003D060C94430611240C9488060E94650607
:100D500070F3959FC1F3950F50E0551F629FF0010E
:100D6000729FBB27F00DB11D639FAA27F00DB11D27
:100D7000AA1F649F6627B00DA11D661F829F2227B0
:100D8000B00DA11D621F739FB00DA11D621F839F37
:100D9000A00D611D221F749F3327A00D611D231F0D
:100DA000849F600D211D822F762F6A2F11249F575B
:100DB00050409AF0F1F088234AF0EE0FFF1FBB1F5E
:100DC000661F771F881F91505040A9F79E3F51051D
:100DD00080F00C943D060C9488065F3FE4F3983E47
:100DE000D4F3869577956795B795F795E7959F5FC7
:100DF000C1F7FE2B880F911D9695879597F9089559
:100E00000E941906880B990B0895A1E21A2EAA1BBD
:100E1000BB1BFD010DC0AA1FBB1FEE1FFF1FA217AA
:100E2000B307E407F50720F0A21BB30BE40BF50BA7
:100E3000661F771F881F991F1A9469F76095709530
:100E4000809590959B01AC01BD01CF010895EE0FF7
:0E0E5000FF1F0590F491E02D0994F894FFCF58
:100E5E000000000027018700B4007401E500C30004
:100E6E00D700436F6E657869C3B36E2045737461A6
:100E7E00626C6563696461000D0A006E616E0069E3
:080E8E006E66006F766600003D
:00000001FF
